:100000000C9434000C943E000C943E000C943E0082
:100010000C943E000C943E000C943E000C943E0068
:100020000C943E000C943E000C943E000C943E0058
:100030000C943E000C943E000C943E000C943E0048
:100040000C943E000C943E000C943E000C943E0038
:100050000C943E000C943E000C943E000C943E0028
:100060000C943E000C943E0011241FBECFEFD8E04C
:10007000DEBFCDBF0E9440000C9482000C940000B3
:10008000CF93DF93CDB7DEB784E290E024E230E097
:10009000F90120812062FC0120838AE290E02AE2BB
:1000A00030E0F90120812F77FC01208385E290E088
:1000B00025E230E0F90120812F7DFC01208389E2D7
:1000C00090E0FC018081882354F485E290E025E2F1
:1000D00030E0F90120812062FC012083F0CF89E229
:1000E00090E0FC018081882F90E08F7D892B39F38F
:1000F00085E290E025E230E0F90120812F7DFC01CE
:080100002083DDCFF894FFCF4E
:00000001FF
