:100000000C9434000C943E000C943E000C943E0082
:100010000C943E000C943E000C943E000C943E0068
:100020000C943E000C943E000C943E000C94400056
:100030000C943E000C943E000C943E000C943E0048
:100040000C943E000C943E000C943E000C943E0038
:100050000C943E000C943E000C943E000C943E0028
:100060000C943E000C943E0011241FBECFEFD8E04C
:10007000DEBFCDBF0E9473000C94BB000C94000047
:100080001F920F9200905F000F9211242F933F93C5
:100090008F939F93EF93FF93CF93DF93CDB7DEB70B
:1000A00085E290E025E230E0F901308120E223276B
:1000B000FC01208386E390E026E330E0F901308103
:1000C00022E02327FC0120830000DF91CF91FF91E4
:1000D000EF919F918F913F912F910F9000925F0030
:1000E0000F901F901895CF93DF93CDB7DEB784E8BC
:1000F00090E0FC011182108280E890E0FC01108207
:1001000081E890E0FC01108288E890E028E0FC01A2
:10011000208389E890E02DE3FC01208386E390E0D2
:1001200026E330E0F901308122E02327FC0120831F
:1001300081E890E021E830E0F90120812460FC01B1
:10014000208384E290E024E230E0F9012081206203
:10015000FC012083F8948FE690E022E0FC012083EC
:10016000789485E290E025E230E0F9012081206278
:0A017000FC012083FFCFF894FFCFBD
:00000001FF
