:100000000C9434000C943E000C943E000C943E0082
:100010000C943E000C943E000C943E000C943E0068
:100020000C943E000C943E000C943E000C943E0058
:100030000C943E000C943E000C943E000C943E0048
:100040000C943E000C943E000C943E000C943E0038
:100050000C943E000C943E000C943E000C943E0028
:100060000C943E000C943E0011241FBECFEFD8E04C
:10007000DEBFCDBF0E9440000C9464000C940000D1
:10008000CF93DF93CDB7DEB784E290E024E230E097
:10009000F90120812062FC01208385E290E025E2C5
:1000A00030E0F90120812062FC01208385E290E0AC
:1000B00025E230E0F90120812F7DFC01208380E0E2
:0C00C00090E0DF91CF910895F894FFCFFD
:00000001FF
